{
  "transactions": [
    {
      "hash": "0x5bca512cd17ec36006d4f80f0bb302267a0410d6279445ec44ba5dbe23af7b4a",
      "transactionType": "CALL",
      "contractName": "CoinFlip",
      "contractAddress": "0xE2f8217f15CCAbb5ca456003DB3f6c0B6B4c7801",
      "function": "flip(bool)",
      "arguments": [
        "false"
      ],
      "transaction": {
        "type": "0x02",
        "from": "0x08f88ef7ecd64a2ea1f3887d725f78ddf1bacdf1",
        "to": "0xe2f8217f15ccabb5ca456003db3f6c0b6b4c7801",
        "gas": "0x11398",
        "value": "0x0",
        "data": "0x1d263f670000000000000000000000000000000000000000000000000000000000000000",
        "nonce": "0x12",
        "accessList": []
      },
      "additionalContracts": [],
      "isFixedGasLimit": false
    }
  ],
  "receipts": [
    {
      "transactionHash": "0x5bca512cd17ec36006d4f80f0bb302267a0410d6279445ec44ba5dbe23af7b4a",
      "transactionIndex": "0x9",
      "blockHash": "0x0056df2a5473c9560477a05df291650461cef031ef5c6ad04ee3bd54f47afa5b",
      "blockNumber": "0x4ea11f",
      "from": "0x08f88ef7ecD64a2eA1f3887d725F78DDF1bacDF1",
      "to": "0xE2f8217f15CCAbb5ca456003DB3f6c0B6B4c7801",
      "cumulativeGasUsed": "0xcae40",
      "gasUsed": "0x796c",
      "contractAddress": null,
      "logs": [],
      "status": "0x1",
      "logsBloom": "0x00000000000000000000000000000000000000000000000000000000000000000000000000000000000000000000000000000000000000000000000000000000000000000000000000000000000000000000000000000000000000000000000000000000000000000000000000000000000000000000000000000000000000000000000000000000000000000000000000000000000000000000000000000000000000000000000000000000000000000000000000000000000000000000000000000000000000000000000000000000000000000000000000000000000000000000000000000000000000000000000000000000000000000000000000000000",
      "type": "0x2",
      "effectiveGasPrice": "0x15fb6c268"
    }
  ],
  "libraries": [],
  "pending": [],
  "returns": {},
  "timestamp": 1706212057,
  "chain": 11155111,
  "multi": false,
  "commit": "5386111"
}