{
  "transactions": [
    {
      "hash": "0x68e5d89dc0b1db3af64d680b239a6be828843c337fcd48099a7f6f62e851086b",
      "transactionType": "CALL",
      "contractName": "CoinFlip",
      "contractAddress": "0xE2f8217f15CCAbb5ca456003DB3f6c0B6B4c7801",
      "function": "flip(bool)",
      "arguments": [
        "true"
      ],
      "transaction": {
        "type": "0x02",
        "from": "0x08f88ef7ecd64a2ea1f3887d725f78ddf1bacdf1",
        "to": "0xe2f8217f15ccabb5ca456003db3f6c0b6b4c7801",
        "gas": "0x16fde",
        "value": "0x0",
        "data": "0x1d263f670000000000000000000000000000000000000000000000000000000000000001",
        "nonce": "0xe",
        "accessList": []
      },
      "additionalContracts": [],
      "isFixedGasLimit": false
    }
  ],
  "receipts": [],
  "libraries": [],
  "pending": [
    "0x68e5d89dc0b1db3af64d680b239a6be828843c337fcd48099a7f6f62e851086b"
  ],
  "returns": {},
  "timestamp": 1706207966,
  "chain": 11155111,
  "multi": false,
  "commit": "5386111"
}