{
  "transactions": [
    {
      "hash": "0xb1cea2698a5a01ae1ca592dff7b86e011edfa5d349cd285fcb5e2c0aba0d9e69",
      "transactionType": "CALL",
      "contractName": "CoinFlip",
      "contractAddress": "0xE2f8217f15CCAbb5ca456003DB3f6c0B6B4c7801",
      "function": "flip(bool)",
      "arguments": [
        "true"
      ],
      "transaction": {
        "type": "0x02",
        "from": "0x08f88ef7ecd64a2ea1f3887d725f78ddf1bacdf1",
        "to": "0xe2f8217f15ccabb5ca456003db3f6c0b6b4c7801",
        "gas": "0xb1b4",
        "value": "0x0",
        "data": "0x1d263f670000000000000000000000000000000000000000000000000000000000000001",
        "nonce": "0x13",
        "accessList": []
      },
      "additionalContracts": [],
      "isFixedGasLimit": false
    }
  ],
  "receipts": [
    {
      "transactionHash": "0xb1cea2698a5a01ae1ca592dff7b86e011edfa5d349cd285fcb5e2c0aba0d9e69",
      "transactionIndex": "0xa",
      "blockHash": "0x785fd68afb9eae048f488f0b84bc6162f329d1cf0853283f3b30ac936bb37ed8",
      "blockNumber": "0x4ea158",
      "from": "0x08f88ef7ecD64a2eA1f3887d725F78DDF1bacDF1",
      "to": "0xE2f8217f15CCAbb5ca456003DB3f6c0B6B4c7801",
      "cumulativeGasUsed": "0x1b7d05",
      "gasUsed": "0x7982",
      "contractAddress": null,
      "logs": [],
      "status": "0x1",
      "logsBloom": "0x00000000000000000000000000000000000000000000000000000000000000000000000000000000000000000000000000000000000000000000000000000000000000000000000000000000000000000000000000000000000000000000000000000000000000000000000000000000000000000000000000000000000000000000000000000000000000000000000000000000000000000000000000000000000000000000000000000000000000000000000000000000000000000000000000000000000000000000000000000000000000000000000000000000000000000000000000000000000000000000000000000000000000000000000000000000",
      "type": "0x2",
      "effectiveGasPrice": "0xe716003d"
    }
  ],
  "libraries": [],
  "pending": [],
  "returns": {},
  "timestamp": 1706212829,
  "chain": 11155111,
  "multi": false,
  "commit": "5386111"
}