{
  "transactions": [
    {
      "hash": "0x5bca512cd17ec36006d4f80f0bb302267a0410d6279445ec44ba5dbe23af7b4a",
      "transactionType": "CALL",
      "contractName": "CoinFlip",
      "contractAddress": "0xE2f8217f15CCAbb5ca456003DB3f6c0B6B4c7801",
      "function": "flip(bool)",
      "arguments": [
        "false"
      ],
      "transaction": {
        "type": "0x02",
        "from": "0x08f88ef7ecd64a2ea1f3887d725f78ddf1bacdf1",
        "to": "0xe2f8217f15ccabb5ca456003db3f6c0b6b4c7801",
        "gas": "0x11398",
        "value": "0x0",
        "data": "0x1d263f670000000000000000000000000000000000000000000000000000000000000000",
        "nonce": "0x12",
        "accessList": []
      },
      "additionalContracts": [],
      "isFixedGasLimit": false
    }
  ],
  "receipts": [],
  "libraries": [],
  "pending": [
    "0x5bca512cd17ec36006d4f80f0bb302267a0410d6279445ec44ba5dbe23af7b4a"
  ],
  "returns": {},
  "timestamp": 1706212044,
  "chain": 11155111,
  "multi": false,
  "commit": "5386111"
}