{
  "transactions": [
    {
      "hash": "0xc894e669aab0316d50f4350dc2ef6bb3b13f73cee4810a6c20d3e136078112be",
      "transactionType": "CALL",
      "contractName": "CoinFlip",
      "contractAddress": "0xE2f8217f15CCAbb5ca456003DB3f6c0B6B4c7801",
      "function": "flip(bool)",
      "arguments": [
        "true"
      ],
      "transaction": {
        "type": "0x02",
        "from": "0x08f88ef7ecd64a2ea1f3887d725f78ddf1bacdf1",
        "to": "0xe2f8217f15ccabb5ca456003db3f6c0b6b4c7801",
        "gas": "0xb1b4",
        "value": "0x0",
        "data": "0x1d263f670000000000000000000000000000000000000000000000000000000000000001",
        "nonce": "0xf",
        "accessList": []
      },
      "additionalContracts": [],
      "isFixedGasLimit": false
    }
  ],
  "receipts": [],
  "libraries": [],
  "pending": [
    "0xc894e669aab0316d50f4350dc2ef6bb3b13f73cee4810a6c20d3e136078112be"
  ],
  "returns": {},
  "timestamp": 1706208263,
  "chain": 11155111,
  "multi": false,
  "commit": "5386111"
}