{
  "transactions": [
    {
      "hash": "0xc894e669aab0316d50f4350dc2ef6bb3b13f73cee4810a6c20d3e136078112be",
      "transactionType": "CALL",
      "contractName": "CoinFlip",
      "contractAddress": "0xE2f8217f15CCAbb5ca456003DB3f6c0B6B4c7801",
      "function": "flip(bool)",
      "arguments": [
        "true"
      ],
      "transaction": {
        "type": "0x02",
        "from": "0x08f88ef7ecd64a2ea1f3887d725f78ddf1bacdf1",
        "to": "0xe2f8217f15ccabb5ca456003db3f6c0b6b4c7801",
        "gas": "0xb1b4",
        "value": "0x0",
        "data": "0x1d263f670000000000000000000000000000000000000000000000000000000000000001",
        "nonce": "0xf",
        "accessList": []
      },
      "additionalContracts": [],
      "isFixedGasLimit": false
    }
  ],
  "receipts": [
    {
      "transactionHash": "0xc894e669aab0316d50f4350dc2ef6bb3b13f73cee4810a6c20d3e136078112be",
      "transactionIndex": "0x14",
      "blockHash": "0xb635cd9bad8b6b305613798ee786bf6b5dab417c564c828f57dd962e0b98961f",
      "blockNumber": "0x4e9ffc",
      "from": "0x08f88ef7ecD64a2eA1f3887d725F78DDF1bacDF1",
      "to": "0xE2f8217f15CCAbb5ca456003DB3f6c0B6B4c7801",
      "cumulativeGasUsed": "0x183225",
      "gasUsed": "0x7982",
      "contractAddress": null,
      "logs": [],
      "status": "0x1",
      "logsBloom": "0x00000000000000000000000000000000000000000000000000000000000000000000000000000000000000000000000000000000000000000000000000000000000000000000000000000000000000000000000000000000000000000000000000000000000000000000000000000000000000000000000000000000000000000000000000000000000000000000000000000000000000000000000000000000000000000000000000000000000000000000000000000000000000000000000000000000000000000000000000000000000000000000000000000000000000000000000000000000000000000000000000000000000000000000000000000000",
      "type": "0x2",
      "effectiveGasPrice": "0x2b203ac51"
    }
  ],
  "libraries": [],
  "pending": [],
  "returns": {},
  "timestamp": 1706208269,
  "chain": 11155111,
  "multi": false,
  "commit": "5386111"
}