{
  "transactions": [
    {
      "hash": "0x59bd1c3793b86438dc3a11eef64445ac7d88290428664a4772a040e713178884",
      "transactionType": "CALL",
      "contractName": "CoinFlip",
      "contractAddress": "0x260dD640ce54288a0Fbe7A8913c262C46E143973",
      "function": "flip(bool)",
      "arguments": [
        "false"
      ],
      "transaction": {
        "type": "0x02",
        "from": "0x08f88ef7ecd64a2ea1f3887d725f78ddf1bacdf1",
        "to": "0x260dd640ce54288a0fbe7a8913c262c46e143973",
        "gas": "0x1857f",
        "value": "0x0",
        "data": "0x1d263f670000000000000000000000000000000000000000000000000000000000000000",
        "nonce": "0x31",
        "accessList": []
      },
      "additionalContracts": [],
      "isFixedGasLimit": false
    }
  ],
  "receipts": [
    {
      "transactionHash": "0x59bd1c3793b86438dc3a11eef64445ac7d88290428664a4772a040e713178884",
      "transactionIndex": "0x68",
      "blockHash": "0x636ff8808306262eaaaefa3f2bc84dfe1f2c77ea9f72226c03edef1cc9958c07",
      "blockNumber": "0x4f56e2",
      "from": "0x08f88ef7ecD64a2eA1f3887d725F78DDF1bacDF1",
      "to": "0x260dD640ce54288a0Fbe7A8913c262C46E143973",
      "cumulativeGasUsed": "0x946ad5",
      "gasUsed": "0xbc38",
      "contractAddress": null,
      "logs": [],
      "status": "0x1",
      "logsBloom": "0x00000000000000000000000000000000000000000000000000000000000000000000000000000000000000000000000000000000000000000000000000000000000000000000000000000000000000000000000000000000000000000000000000000000000000000000000000000000000000000000000000000000000000000000000000000000000000000000000000000000000000000000000000000000000000000000000000000000000000000000000000000000000000000000000000000000000000000000000000000000000000000000000000000000000000000000000000000000000000000000000000000000000000000000000000000000",
      "type": "0x2",
      "effectiveGasPrice": "0x10119bd1c8"
    }
  ],
  "libraries": [],
  "pending": [],
  "returns": {},
  "timestamp": 1706819464,
  "chain": 11155111,
  "multi": false,
  "commit": "a73bb17"
}