{
  "transactions": [
    {
      "hash": "0xb26591ce91e88f0f09198d499265df168aed8b206c5f211e2ff448aaeee496e4",
      "transactionType": "CALL",
      "contractName": "CoinFlip",
      "contractAddress": "0x260dD640ce54288a0Fbe7A8913c262C46E143973",
      "function": "flip(bool)",
      "arguments": [
        "false"
      ],
      "transaction": {
        "type": "0x02",
        "from": "0x08f88ef7ecd64a2ea1f3887d725f78ddf1bacdf1",
        "to": "0x260dd640ce54288a0fbe7a8913c262c46e143973",
        "gas": "0x11398",
        "value": "0x0",
        "data": "0x1d263f670000000000000000000000000000000000000000000000000000000000000000",
        "nonce": "0x33",
        "accessList": []
      },
      "additionalContracts": [],
      "isFixedGasLimit": false
    }
  ],
  "receipts": [
    {
      "transactionHash": "0xb26591ce91e88f0f09198d499265df168aed8b206c5f211e2ff448aaeee496e4",
      "transactionIndex": "0x4b",
      "blockHash": "0x127d141524363c9d24ef943199c5c85980098eed368685c212b64c0243fa2f05",
      "blockNumber": "0x4f57ef",
      "from": "0x08f88ef7ecD64a2eA1f3887d725F78DDF1bacDF1",
      "to": "0x260dD640ce54288a0Fbe7A8913c262C46E143973",
      "cumulativeGasUsed": "0x8405d7",
      "gasUsed": "0xc787",
      "contractAddress": null,
      "logs": [],
      "status": "0x1",
      "logsBloom": "0x00000000000000000000000000000000000000000000000000000000000000000000000000000000000000000000000000000000000000000000000000000000000000000000000000000000000000000000000000000000000000000000000000000000000000000000000000000000000000000000000000000000000000000000000000000000000000000000000000000000000000000000000000000000000000000000000000000000000000000000000000000000000000000000000000000000000000000000000000000000000000000000000000000000000000000000000000000000000000000000000000000000000000000000000000000000",
      "type": "0x2",
      "effectiveGasPrice": "0xaf37ee201"
    }
  ],
  "libraries": [],
  "pending": [],
  "returns": {},
  "timestamp": 1706822764,
  "chain": 11155111,
  "multi": false,
  "commit": "a73bb17"
}