{
  "transactions": [
    {
      "hash": "0x59bd1c3793b86438dc3a11eef64445ac7d88290428664a4772a040e713178884",
      "transactionType": "CALL",
      "contractName": "CoinFlip",
      "contractAddress": "0x260dD640ce54288a0Fbe7A8913c262C46E143973",
      "function": "flip(bool)",
      "arguments": [
        "false"
      ],
      "transaction": {
        "type": "0x02",
        "from": "0x08f88ef7ecd64a2ea1f3887d725f78ddf1bacdf1",
        "to": "0x260dd640ce54288a0fbe7a8913c262c46e143973",
        "gas": "0x1857f",
        "value": "0x0",
        "data": "0x1d263f670000000000000000000000000000000000000000000000000000000000000000",
        "nonce": "0x31",
        "accessList": []
      },
      "additionalContracts": [],
      "isFixedGasLimit": false
    }
  ],
  "receipts": [],
  "libraries": [],
  "pending": [
    "0x59bd1c3793b86438dc3a11eef64445ac7d88290428664a4772a040e713178884"
  ],
  "returns": {},
  "timestamp": 1706819451,
  "chain": 11155111,
  "multi": false,
  "commit": "a73bb17"
}