{
  "transactions": [
    {
      "hash": "0x121aaa071091d7e49ba60ac4e6401516b2afbf926d7dcbde21e82e3d0cb39d50",
      "transactionType": "CALL",
      "contractName": null,
      "contractAddress": "0x5B70DeF289E41b7FEabB8bEB5C9fEda5b4ee4194",
      "function": "changeOwner(address)",
      "arguments": [
        "0x08f88ef7ecD64a2eA1f3887d725F78DDF1bacDF1"
      ],
      "transaction": {
        "type": "0x02",
        "from": "0x08f88ef7ecd64a2ea1f3887d725f78ddf1bacdf1",
        "to": "0x5b70def289e41b7feabb8beb5c9feda5b4ee4194",
        "gas": "0x7521",
        "value": "0x0",
        "data": "0xa6f9dae100000000000000000000000008f88ef7ecd64a2ea1f3887d725f78ddf1bacdf1",
        "nonce": "0x41",
        "accessList": []
      },
      "additionalContracts": [],
      "isFixedGasLimit": false
    }
  ],
  "receipts": [],
  "libraries": [],
  "pending": [
    "0x121aaa071091d7e49ba60ac4e6401516b2afbf926d7dcbde21e82e3d0cb39d50"
  ],
  "returns": {},
  "timestamp": 1706827197,
  "chain": 11155111,
  "multi": false,
  "commit": "6d2d38f"
}