{
  "transactions": [
    {
      "hash": "0xc3c8cdc26fa3b2bed55a1b4ec390ee0f8e07d0509518fb2515a095d216edde4a",
      "transactionType": "CALL",
      "contractName": null,
      "contractAddress": "0x5B70DeF289E41b7FEabB8bEB5C9fEda5b4ee4194",
      "function": "changeOwner(address)",
      "arguments": [
        "0x1804c8AB1F12E6bbf3894d4083f33e07309d1f38"
      ],
      "transaction": {
        "type": "0x02",
        "from": "0x08f88ef7ecd64a2ea1f3887d725f78ddf1bacdf1",
        "to": "0x5b70def289e41b7feabb8beb5c9feda5b4ee4194",
        "gas": "0x7521",
        "value": "0x0",
        "data": "0xa6f9dae10000000000000000000000001804c8ab1f12e6bbf3894d4083f33e07309d1f38",
        "nonce": "0x40",
        "accessList": []
      },
      "additionalContracts": [],
      "isFixedGasLimit": false
    }
  ],
  "receipts": [
    {
      "transactionHash": "0xc3c8cdc26fa3b2bed55a1b4ec390ee0f8e07d0509518fb2515a095d216edde4a",
      "transactionIndex": "0x6a",
      "blockHash": "0x4aee7ca93e0a8188224cde7dfab6e8c8fb9c82cac379305ed66ea950ce6568d5",
      "blockNumber": "0x4f5932",
      "from": "0x08f88ef7ecD64a2eA1f3887d725F78DDF1bacDF1",
      "to": "0x5B70DeF289E41b7FEabB8bEB5C9fEda5b4ee4194",
      "cumulativeGasUsed": "0xb9d54d",
      "gasUsed": "0x54ce",
      "contractAddress": null,
      "logs": [],
      "status": "0x1",
      "logsBloom": "0x00000000000000000000000000000000000000000000000000000000000000000000000000000000000000000000000000000000000000000000000000000000000000000000000000000000000000000000000000000000000000000000000000000000000000000000000000000000000000000000000000000000000000000000000000000000000000000000000000000000000000000000000000000000000000000000000000000000000000000000000000000000000000000000000000000000000000000000000000000000000000000000000000000000000000000000000000000000000000000000000000000000000000000000000000000000",
      "type": "0x2",
      "effectiveGasPrice": "0x63d520474"
    }
  ],
  "libraries": [],
  "pending": [],
  "returns": {},
  "timestamp": 1706826689,
  "chain": 11155111,
  "multi": false,
  "commit": "6d2d38f"
}