{
  "transactions": [
    {
      "hash": "0x121aaa071091d7e49ba60ac4e6401516b2afbf926d7dcbde21e82e3d0cb39d50",
      "transactionType": "CALL",
      "contractName": null,
      "contractAddress": "0x5B70DeF289E41b7FEabB8bEB5C9fEda5b4ee4194",
      "function": "changeOwner(address)",
      "arguments": [
        "0x08f88ef7ecD64a2eA1f3887d725F78DDF1bacDF1"
      ],
      "transaction": {
        "type": "0x02",
        "from": "0x08f88ef7ecd64a2ea1f3887d725f78ddf1bacdf1",
        "to": "0x5b70def289e41b7feabb8beb5c9feda5b4ee4194",
        "gas": "0x7521",
        "value": "0x0",
        "data": "0xa6f9dae100000000000000000000000008f88ef7ecd64a2ea1f3887d725f78ddf1bacdf1",
        "nonce": "0x41",
        "accessList": []
      },
      "additionalContracts": [],
      "isFixedGasLimit": false
    }
  ],
  "receipts": [
    {
      "transactionHash": "0x121aaa071091d7e49ba60ac4e6401516b2afbf926d7dcbde21e82e3d0cb39d50",
      "transactionIndex": "0xd3",
      "blockHash": "0x3b38e452ea503eda4bee3efd9c5ed1a89236e5710dfc1c7864aac022984d3131",
      "blockNumber": "0x4f595c",
      "from": "0x08f88ef7ecD64a2eA1f3887d725F78DDF1bacDF1",
      "to": "0x5B70DeF289E41b7FEabB8bEB5C9fEda5b4ee4194",
      "cumulativeGasUsed": "0x13bc85f",
      "gasUsed": "0x54ce",
      "contractAddress": null,
      "logs": [],
      "status": "0x1",
      "logsBloom": "0x00000000000000000000000000000000000000000000000000000000000000000000000000000000000000000000000000000000000000000000000000000000000000000000000000000000000000000000000000000000000000000000000000000000000000000000000000000000000000000000000000000000000000000000000000000000000000000000000000000000000000000000000000000000000000000000000000000000000000000000000000000000000000000000000000000000000000000000000000000000000000000000000000000000000000000000000000000000000000000000000000000000000000000000000000000000",
      "type": "0x2",
      "effectiveGasPrice": "0x6121bb1ad"
    }
  ],
  "libraries": [],
  "pending": [],
  "returns": {},
  "timestamp": 1706827217,
  "chain": 11155111,
  "multi": false,
  "commit": "6d2d38f"
}